:020000040000FA
:1000000000800020A9000000C10C0000B300000027
:1000100000000000000000000000000000000000E0
:10002000000000000000000000000000B30000001D
:100030000000000000000000B5000000B700000054
:10004000B9000000B9000000B9000000B9000000CC
:10005000B9000000B9000000B9000000B9000000BC
:10006000B9000000B9000000B9000000B9000000AC
:10007000B9000000B9000000B9000000B90000009C
:10008000B9000000B9000000B9000000B90000008C
:100090000448854600F070F8004800477D1B0000CA
:1000A000C046C046008000200448804704480047FE
:1000B000FEE7FEE7FEE7FEE7FEE70000DD130000D7
:1000C0009100000030B50B4601460020202201249B
:1000D00009E00D46D5409D4205D31D469540491B7C
:1000E0002546954040191546521E002DF1DC30BDC5
:1000F00070B500242546002801DA01244042002979
:1001000001DA01254942FFF7DDFFAC4200D0404251
:10011000002C00D0494270BDF0B51FB40646002047
:1001200082B005464024019100901BE001992246CF
:100130000F46304600F042F8049A059B801A994118
:1001400010D310461946224600F028F8361A8F417F
:100150000197224601200021009F00F01FF8381867
:100160004D4100902046641E0028DFDC019B009872
:100170002946324607B0F0BD064C0125064E05E083
:10018000E36807CC2B430C3C98471034B442F7D3B8
:10019000FFF782FF742100009421000010B5202A8F
:1001A00004DB0146203A9140002010BD91402023FD
:1001B0009C1A0346E3401943904010BD10B5202A15
:1001C00004DB0846203AD040002110BD0B46D34046
:1001D000D0402024A21A91400843194610BD0000C7
:1001E00010B5002416484079C007C00F002819D068
:1001F00014480078002805D011484078C007C00F87
:1002000000281BD100F0EAF80D4840794108012090
:1002100088430C498870012008700BA001F01EFA79
:1002200015240BE007480078012807DB00F0D6F81A
:1002300008A001F013FA002C00D11624204610BDAE
:1002400000800040AC0000205553422064657620B9
:10025000696E0A0055534220646576206F75740AF2
:10026000000000000146002006E00A78044B1B68ED
:100270001A54491C421CD0B20828F6D1704700001D
:100280002400002038B51848FFF7ECFF69461748EE
:1002900000F01CFA0446002C01D0204638BD12485C
:1002A000C08869460978884201DD1720F6E70F49C2
:1002B000C878897800020843C1B200910A48FFF764
:1002C000D1FF684601780A4800688171090AC17146
:1002D0006946064800F0FAF90446002C01D0204691
:1002E000DCE70020DAE7000034210000BC00002039
:1002F0002400002038B508200D4908700D48FFF78C
:10030000B1FF69460C4800F0E1F90446002C01D029
:10031000204638BD0848C079054908700548C0889E
:1003200069460978884201DD1720F2E70020F0E7EE
:100330001C0000202C210000BC00002038B50B4818
:10034000FFF790FF69460A4800F0C0F90446002C08
:1003500001D0204638BD0548C088694609788842E2
:1003600001DD1720F6E70020F4E700006C21000013
:10037000BC00002070B504460C48FFF773FF0C4822
:1003800000688470210AC1700021084600F09EF9BF
:100390000546002D01D0284670BD204600F0DAFE4B
:1003A0000A2001F0CDFB0020F6E700003C21000010
:1003B0002400002010B504460648FFF753FF064806
:1003C00000688470210AC1700021084600F07EF99F
:1003D00010BD00004421000024000020002002493C
:1003E0000870487070470000AC0000201648007884
:1003F000012802DA01201449087014484079C00726
:10040000C00F00281ED011484078C007C00F002838
:1004100010D10E4840794108012088430A4988706C
:1004200008468078002805D1084840780421084310
:10043000064948700548407801210843034948703F
:10044000002070471620FCE7AC0000200080004030
:10045000FCB5334DEC78AD7824022C430194304C3C
:100460002078002300242F4D2C7200252D4C65721E
:10047000FF25A5724EE02A4C215C2546441C2A5DCE
:10048000042A1ED12E46471DF45D871DF55DC71D4C
:10049000F65D0096032C06D1012D04D1009E012E9D
:1004A00001DC012600E000263346002B08D01D4E5B
:1004B000B67AFF2E04D11A4E871CF75D194EB7721B
:1004C00023E0052A21D1164D841C2C5D80252C406B
:1004D000002C1AD0124DC41C2C5DA407A40F032CB1
:1004E00013D1002B08D00F4C247A002C04D1841C8B
:1004F0002C5D0C4D2C7208E00A4C647A002C04D15F
:10050000074D841C2D5D074C6572002900D104E065
:100510004418A0B2019CA042ADDB00BFFCBD0000AE
:10052000BC000020AC00002000B50B0001F0A6F8D4
:10053000050412202E384200204A526B82431F4B82
:100540005A631A46126B82431A631A46126A82432E
:100550001A6230E0194A526B8243184B5A631A46AA
:10056000126B02431A631A46126A82431A6222E02D
:10057000124A526B0243114B5A631A46126B824362
:100580001A631A46126A82431A6214E00B4A526BCB
:1005900082430A4B5A631A46126A02431A620AE0FD
:1005A000064A526B0243054B5A631A46126A0243CB
:1005B0001A6200E000BF00BF00BD000080100040D4
:1005C00010B510480089C4B2C0202040802801D155
:1005D0000D4810BDC0202040402805D1E106C90EBD
:1005E0000A48FFF785FDF4E7C0202040002805D128
:1005F000E106C90E0448FFF77BFDEAE77D20000213
:10060000E7E70000001000400048E80100389C1CAB
:100610003EB5044609A003C8019100906846FFF763
:1006200021FE084800680471210A417102A90648A8
:1006300000F04CF8054628463EBD00008106002229
:100640000000400024000020BC0000207CB50446CF
:100650000D462121684601700A21417085700021F4
:10066000C170017141718171C171FFF7FBFD0648D5
:1006700000680471210A41710021084600F026F843
:10068000064630467CBD0000240000207CB50446B0
:100690000D462121684601700B21417085700021B3
:1006A000C170017141718171C171FFF7DBFD0648B5
:1006B00000680471210A41710021084600F006F823
:1006C000064630467CBD000024000020F3B583B010
:1006D0000024039F049DC82001F03FFA002D01D0A3
:1006E00000202870082064490873644A0021D02043
:1006F00000F0D2FE0646002E02D0304605B0F0BD16
:10070000D0205D4988738872012008735C480168B5
:10071000C879897904020C43002C52D0002FFCD0F8
:100720005748006800788021084000284AD042E0FD
:10073000C82001F012FA5048817A504A902000F007
:10074000ABFE0646002E01D03046D7E74A48203897
:10075000007AA04203DA48482038007A00E02046B8
:10076000C0B202900298201A84B2002D03D02978DA
:100770000298081828700020019009E0414801689B
:100780000198085C38707F1C0198401CC0B2019031
:10079000029901988842F1D137482038007A002820
:1007A00008D035482038007A37490978491E084072
:1007B000002800D001E0002CBAD100BF00202E4953
:1007C000087337E034E0C82001F0C7F92E480078FC
:1007D000844202DB2C48007800E02046264908735A
:1007E0000020009009E039782548026800981154EB
:1007F0007F1C0098401CC0B200901F48017B0098ED
:100800008142F0D11C48817B1C4A102000F044FE3C
:100810000646002E01D0304670E71748007B201AAC
:1008200084B2002D04D028781349097B4018287021
:10083000002CC8D1C82001F090F90F49097B00298C
:1008400001D0902100E0102108460C4AC02100F0A0
:1008500023FE0646002E01D030464FE70648007BB7
:10086000002800D14AE704482038007A002800D147
:1008700044E7172042E700002080004010270000D6
:1008800024000020200000201C000020F8B58BA0D0
:1008900000F0E4FE00F0BEFB002500240EE0012085
:1008A00001F04EF9FFF7A2FD002805D10025601CDC
:1008B000C4B2642C00DD03E0681CC5B2642DEEDB1D
:1008C00000BF002D06D0FFF789FD81A000F0C6FE15
:1008D0001620F8BD8949887800F066FD88A000F0F0
:1008E000BDFEFFF707FD0446002C75D1002506E08C
:1008F0008748415D87A000F0B1FE681CC5B28749FA
:10090000C879897900020843A842F1DC84A000F08C
:10091000A5FE7F480089794988807D484089C88044
:100920007B4807797F4AD178927809021143C8B28F
:10093000FFF720FD0446002CD7D17A49C878897882
:10094000000208436D49487077A000F087FEFFF76A
:1009500099FC0446002CC8D1002506E06C48415D96
:100960006CA000F07BFE681CC5B269484088A842B4
:10097000F4DC6BA000F072FE65484079009064489A
:10098000867B002F14D1082E12D10098FFF712FD9C
:100990000446002CA9D10320584908700820C870CB
:1009A00065A000F05BFE012000F0FEFC002090E757
:1009B000002F1AD1072E18D15548C07B012814D119
:1009C0000098FFF7F7FC0446002C6BD103204B493D
:1009D00008700720C87000E034E05BA000F03EFE25
:1009E000012000F0E1FC002073E7002F2BD1032E43
:1009F00029D14748C07B012825DC4548067C009862
:100A0000FFF7D8FC0446002C4CD103203B4908706A
:100A1000012E09D12320C87050A000F01FFE012034
:100A200000F0C2FC002054E7022E0AD133203349E3
:100A3000C8704FA000F012FE012000F0B5FC0020AD
:100A400047E7FB242EE0092F1CD1FFF777FC044673
:100A5000002C27D12E4881784AA000F0FFFD009895
:100A6000FFF7A8FC0446002C1CD103202349087082
:100A70000920C87047A000F0F1FD012000F094FCAF
:100A8000002026E70098FFF795FC0446002C09D1CA
:100A900003201A490870FF20C870012000F084FC70
:100AA000002016E721463FA000F0D8FD02201349A0
:100AB0000870012000F078FC20460AE75265736553
:100AC0007420686F737420706F72740A00000000E5
:100AD00044697361626C6520686F737420706F7213
:100AE000742062656361757365206F662064697345
:100AF000636F6E6E6563740A00000000AC00002036
:100B000047657444657644657363723A200000005B
:100B1000BC00002078253032582000002C21000035
:100B20000A0000003C210000476574436667446585
:100B30007363723A200000005553422D4469736B71
:100B40002052656164790A005553422D5072696ED6
:100B5000742052656164790A000000005553422DEB
:100B60004B6579626F6172642052656164790A0035
:100B70005553422D4D6F7573652052656164790A36
:100B8000000000004D617820506F72743A253032B9
:100B9000582000005553422D48554220526561644B
:100BA000790A0000496E6974526F6F74446576204B
:100BB000457272203D20253032580A0010B5044697
:100BC0000121204600F01EF857200D490870A8208A
:100BD0000870002C08D10A482038C07B04218843C3
:100BE00007492039C87307E005482038C07B042135
:100BF000084303492039C87300200149087010BD1B
:100C00004010004010B50A46002A31D0002810D10B
:100C100057232A4C2370A8232370284B203BDB7BCF
:100C200002242343254C203CE3730023234C2370F0
:100C300011E001280FD15723204C2370A8232370E3
:100C40001E4B203BDB7B012423431C4C203CE373E5
:100C500000231A4C237000BF184B203BD97B802403
:100C60002140DB7B23408B42F6D10029F4D023E0E6
:100C7000002810D15723114C2370A82323700F4B49
:100C8000203BDB7B0224A3430C4C203CE37300237A
:100C90000A4C237010E001280ED15723074C237013
:100CA000A8232370054B203BDB7B8343034C203C74
:100CB000E3730023014C237010BD0000401000407E
:100CC00000202449897A0822114000290BD157219C
:100CD000204A40321170A82111701E49897A0822D9
:100CE00011431C4A917257211A4A40321170A821AF
:100CF00011700521174A11811649203109880322F4
:100D000052029143134A203211801249897A1022EB
:100D10001143104A917200210E4A4032117017E0BF
:100D20000C4920318979C907C90F002901D0002059
:100D300000E0401C7D210901884209D95721054A5C
:100D400040321170A82111700121917100211170A0
:100D5000E6E7000000100040002823D15722254B71
:100D60001A70A8221A7080220A40002A07D0214A4D
:100D7000403AD27B02231A431E4B403BDA731D4A92
:100D8000403A927A1C230B409A431A4B403B9A728A
:100D9000184A203AD27B8B079B0F9A43154B203B76
:100DA000DA7322E05722134B1A70A8221A7080229D
:100DB0000A40002A07D00F4A403AD27B02239A43C6
:100DC0000C4B403BDA730B4A403A927A1C230B409F
:100DD0001A43084B403B9A72064A203AD27B8B0753
:100DE0009B0F1A43034B203BDA730022014B1A700E
:100DF0007047000040100040F0B585B0002004901E
:100E0000ACE00498002802D15748007A01E0564827
:100E1000407A0746002F00D19CE054480068401CEF
:100E2000524908609021394308463222102100F0CF
:100E300033FB0646002E12D02A2E05D14C480068FE
:100E4000401C4B49086085E04A480068401C4949FD
:100E50000860162E02D148A001F054F97AE0494802
:100E60000068401C474908604748057A082D00DDA6
:100E7000082546480078874205D1454800788542D4
:100E800001D1012000E000200390039800280FD03A
:100E900000240AE03F48005D3F49095D884202D0D6
:100EA0000020039003E0601CC4B2AC42F2DB00BF40
:100EB0000398002800D04DE038A001F023F900206D
:100EC00002900220019018E032490198085C002845
:100ED0000FD00298002802D032A001F013F92D4A59
:100EE0000199505C00F0F6FF009001F00BF9012031
:100EF00002900198401CC0B201900198A842E3DB27
:100F00000298002802D128A001F0FCF827A001F0E7
:100F1000F9F800240AE0002C02D021A001F0F2F838
:100F20001C49085D01F0D4F8601CC4B2AC42F2DB8D
:100F30001FA001F0E7F8002405E01648005D1649FF
:100F40000855601CC4B2AC42F7DB114805700F486D
:100F5000077000BF0498401CC0B204900498022897
:100F600000DA4EE705B0F0BDAC0000200000002024
:100F7000080000200C0000200D0A646576206F75C3
:100F8000740D0A00040000200080004019000020B9
:100F9000180000202C000020100000204B45593A7A
:100FA000200000002B0000002D000000205B00004E
:100FB0005D0D0A0010B50446002C0BD157201449D2
:100FC0000870A820087000201149203908711049C4
:100FD00008701BE057200E490870A82008700120F7
:100FE0000B49203948710871002009490870012017
:100FF00000F0B3FD572006490870A82008700D20A6
:1010000003492039087100200149087010BD000013
:101010004010004010B5082012490870002000F070
:1010200099F811484078400840000F494870012065
:1010300000F0BAF90C4840780421884302210843A3
:10104000094948700F2000F07BFD074840780221D5
:10105000884305494870FA2000F07FFD01200249CD
:10106000887110BD1C0000200080004057210B4AF1
:101070001170A821117009494039897A0822114359
:10108000064A403A91720021044A1170002001E0A2
:1010900000BF401C0428FBD37047000040100040F4
:1010A00057220E4B1A70A8221A700C4A403A927AB4
:1010B00004231A43094B403B9A720022074B1A70D3
:1010C000002006E0002101E000BF491C0429FBD3F9
:1010D000401C4B2212019042F4D370474010004054
:1010E0000248807A08210840C0087047001000407C
:1010F0000248807A042108408008704700100040B0
:101100000248807A10210840000970470010004012
:1011100057220E4B1A70A8221A700C4A403A927A43
:1011200010231A43094B403B9A720022074B1A7056
:10113000002006E0002101E000BF491C0429FBD388
:10114000401C034A9042F5D3704700004010004015
:10115000B80B00000449C978802211404206520EA3
:101160001143014AD17070470080004010B5044619
:10117000230000F083FA0D0815223343546B829943
:10118000B0C7DEF7F5000020FFF718FD57208449AF
:101190000870A8200870C820814940390881F9E00A
:1011A0000120FFF70BFD57207D490870A82008702B
:1011B000C8207B4940390881ECE0FFF799FF0028FF
:1011C00001D1FFF76DFF572075490870A8200870FE
:1011D0005120C000724940390881DBE0FFF788FFE9
:1011E000002801D1FFF75CFF57206D490870A82047
:1011F00008706C486A4940390881CBE0FFF778FFF6
:10120000002801D1FFF74CFF572065490870A8203E
:10121000087081208000624940390881BAE0FFF7F8
:101220005FFF002801D1FFF721FF57205C490870BC
:10123000A820087088205A49403908810846807AD9
:1012400004218843564940398872A3E0FFF748FFDC
:10125000002801D1FFF70AFF572051490870A82044
:10126000087002204E49403908810846807A0421DE
:1012700088434B49403988728CE0FFF731FF0028E2
:1012800001D1FFF7F3FE572045490870A8200870E8
:1012900004204349403908810846807A0421884364
:1012A0003F494039887275E0FFF722FF002801D1DD
:1012B000FFF7F6FEFFF724FF002801D1FFF728FF14
:1012C000572037490870A8200870932080003449BF
:1012D000403908815EE0FFF70BFF002801D1FFF7DE
:1012E000DFFEFFF70DFF002801D1FFF711FF5720A8
:1012F0002B490870A82008702A484D3028494039E9
:10130000088147E0FFF7F4FE002801D1FFF7C8FE8F
:10131000FFF7F6FE002801D1FFF7FAFE572020491B
:101320000870A8200870952080001D494039088168
:1013300030E0FFF7DDFE002801D1FFF7B1FEFFF737
:10134000DFFE002801D1FFF7E3FE572014490870A3
:10135000A82008704B20C00011494039088119E0CD
:1013600017E0FFE7FFF7C4FE002801D1FFF798FE62
:10137000FFF7C6FE002801D1FFF7CAFE5720084933
:101380000870A820087007485C300549403908817A
:1013900000E000BF00BF00200149087010BD000040
:1013A000401000400202000000280ED00A490978CF
:1013B00040229143084A11700749203189798022DF
:1013C0009143054A2032917105E003490978402292
:1013D0001143014A117070470080004010B5194850
:1013E000807A0407240F082C14DB0D2C12DCA01FBC
:1013F000C4B2062C00DB06241248807A00090001E2
:10140000044357200F490870A820087008468472CA
:101410000020087057200B490870A8200870882009
:1014200008494039088107480089042108430549D3
:101430000881002008700A2000F08FFB0120FFF7D0
:10144000B9FD10BD4010004070B50446FFF7B8F874
:101450000A214843C60821463046FEF733FE0546BA
:101460000A21681DFEF72EFE054601498D8170BDDB
:101470000034004010B5E1204002FFF7E5FF87206F
:10148000044988700320C870402048700120887388
:1014900010BD000000340040F7B582B00646154686
:1014A00053490398887388720020019000BF504808
:1014B000067202204E49203988711920400100909F
:1014C00003E00098401E80B200900098002806D0EB
:1014D000474820388079022108400028F1D00020B8
:1014E0004349087242482038807902210840002888
:1014F00002D1FE2005B0F0BD3D4820388079C007FC
:10150000C00F00281AD00120394920398871FEF710
:1015100067FE0746152F02D101203649087036486C
:101520000078002801D11620E4E73348007801282C
:1015300001D11520DEE7C82000F00FFB2C48203831
:10154000807902210840002841D029482038C079FC
:1015500040210840002801D00020CBE72448203853
:10156000C0790407240F0E2C03D120462021084304
:10157000C0E70A2C0ED1002D03D1204620210843BC
:10158000B8E7681C002800D06D1E0198401EC0B24C
:10159000019020E03011012804D0092809D00D283D
:1015A00012D100BF002C03D0204620210843A1E720
:1015B0000CE0032C07D00B2C05D0002C03D02046C8
:1015C0002021084396E701E0FE2093E703E0FF2097
:1015D0000749203988710F2000F0BFFA0198401C9C
:1015E000C0B20190032800DA61E7202082E7000002
:1015F000208000401D000020AC00002000B58020AD
:101600001249087000204870C8704820487310487C
:10161000008808830F480088888300200B49203108
:101620008872887389200949087040200749203151
:101630008871FF2005498871FEF7D0FE0320034919
:10164000887000200449087000BD00000080004040
:1016500020000020240000201D0000200FB410B541
:1016600003A9044B044A029800F026F810BC08BCF9
:1016700004B018472D1B00002800002030B4744629
:10168000641E2578641CAB4204D3635D5B00E318E1
:1016900030BC18471D46F8E702E008C8121F08C111
:1016A000002AFAD170477047002001E001C1121FE3
:1016B000002AFBD170470000FFB591B00F460546E8
:1016C000002606E025280AD0149A139990476D1C2D
:1016D000761C28780028F5D1304615B0F0BD0024DE
:1016E00000940121F34A029400E004436D1C2B781E
:1016F0000846203B98401042F7D128782A280ED07F
:101700000222287801463039092915D800990A2380
:1017100059433039401814436D1C0090F1E701CF54
:101720000090002805DA012040030443009840425D
:101730000090022004436D1C28782E2815D1042027
:10174000044368786D1C2A280AD101CF6D1C0290D1
:101750000BE002990A225143303940186D1C029067
:101760002878014630390929F3D928786C2810D017
:1017700006DC4C281AD068280ED06A2817D104E05D
:10178000742813D07A2812D110E0012040050443B8
:101790000CE00121090501E0032109050C436978EA
:1017A000814203D10120000524186D1C6D1C28788E
:1017B0006E281ED00CDC632831D004DC00288BD0CE
:1017C000582811D1B2E064287BD069280CD178E088
:1017D00073282DD004DC6F2870D0702804D1A7E0C6
:1017E00075286CD078286BD0149A13999047761C82
:1017F00062E06002400F022807D003280AD00428C4
:1018000038680AD006603F1D56E03868F117066058
:101810004160F8E738680680F5E70670F3E7387846
:10182000694608740020487404A80390012003E06E
:10183000386803900020C0433F1D61070FD5002189
:1018400001E00199491C029A0191914213DA814207
:10185000F7DB019A0399895C0029F2D10BE00021A2
:1018600001E00199491C01918142FADB019A039937
:10187000895C0029F5D101990098139A401A0090CB
:101880002146149B00F03CF901998019461807E0A5
:10189000039803990078491C0391149A139990476F
:1018A0000198401E0190401CF2D12146149B139ACE
:1018B000009800F015F986196D1C0AE741E033E045
:1018C00034E00A200021049005916002410F0229B2
:1018D00005D001CFC2179446032905D007E0FF1DAC
:1018E000FF08FF0003CF06E000B2C21794460429A8
:1018F00002D140B2C1178C4600226146944506DAF7
:101900000A460021404291418C462D2102E02105EA
:1019100004D52B216A461176012103E0E10701D0AD
:101920002021F7E7019155E00A200BE0102009E0A3
:101930001020049000210420044308200591029007
:1019400003E008200021059104906002410F022964
:1019500005D001CF00229446032906D006E0FF1DE2
:10196000FF08FF0003CF8C4603E080B2042900D1BA
:10197000C0B20021019121072CD52978039170294B
:1019800006D0049A1021059B4A401A4305D00EE068
:1019900040216A461176012108E06146014306D0E4
:1019A00030216A4611760399517602210191049AF9
:1019B0000821059B4A401A430CD16146014301D1DD
:1019C000610707D530216A461176012101910299FC
:1019D000491E02912978582904D037A103910FA9F3
:1019E0000F910DE039A1F9E76146059B049AFEF7D6
:1019F00093FB039B8C469B5C0F9A521E0F921370B5
:101A000061460143F0D10F9807A9081A20300390CE
:101A1000600704D5012000048443029801E00120FE
:101A200002900399884201DD401A00E0002041182D
:101A30000290019809180098401A0090E00306D41B
:101A40002146149B139A009800F05AF8861900203A
:101A5000049008E006A9085C149A1399904704982A
:101A6000401C761C049001998842F3DBE0030CD5FE
:101A70002146149B139A009800F042F8861904E05E
:101A8000149A302013999047761C0299481E0290B0
:101A90000029F5DC08E00F980F990078491C0F9198
:101AA000149A13999047761C0399481E03900029B5
:101AB000F1DCFAE6092801003031323334353637AB
:101AC000383961626364656600000000303132338A
:101AD000343536373839414243444546000000002A
:101AE000F8B5044600251E461746880404D405E0D0
:101AF00039462020B0476D1C641EF9D52846F8BD34
:101B0000FFB50446002581B01E46C80301D5302725
:101B100000E02027880404D505E038460399B04743
:101B20006D1C641EF9D5284605B0F0BD00BF034A00
:101B3000D27A082AFBD0014B18727047003400405B
:101B400030B50446002505E07D20C00000F005F812
:101B5000681C85B2A542F7DB30BD10B500210AE054
:101B6000022201E000BF00BF1346541EA2B2002BA8
:101B7000F8D14B1C99B28142F2DB10BD08B50220AE
:101B8000FFF7F4FA10210120FFF7E6F80520FFF730
:101B9000D7FF8A48806A0121490208438749886241
:101BA00001210802FEF7C0FC032101204002FEF7DC
:101BB000BBFCFFF75FFC82A000F0A4FA87488849CD
:101BC00008608848884908607C488038408B8021BC
:101BD00008437A4980394883FFF710FDECE0FEF7AF
:101BE000FFFA0446152C69D180A000F08BFAFEF7AD
:101BF0004DFE0446214682A000F014FA002C5DD16F
:101C0000FEF726FC83A000F07DFA8448818884A03A
:101C100000F008FA83A000F075FA8048C18883A01C
:101C200000F000FA83A000F06DFA7C48017A7CA0F5
:101C300000F0F8F981A000F065FA7848417A7BA0BD
:101C400000F0F0F97548807AFF2801D1002001E00A
:101C50007248807A05467BA000F054FA2846FEF7C9
:101C6000D7FC064600212846FEF710FD07460A214C
:101C70002846FEF7EBFC33463A460146009073A037
:101C800000F0D0F96548407A002816D072A000F024
:101C900039FA0120FEF7BCFC064600210120FEF7C0
:101CA000F5FC07460A210120FEF7D0FC33463A46F0
:101CB0000146009065A000F0B5F900BF57480078D4
:101CC00003280DD15548C078232807D05348007AFF
:101CD000002803D15148C078FF2801D1FFF78CF8C4
:101CE0005F484079C007C00F002830D05C48007AB8
:101CF00070282CD15BA000F005FA4848017848A074
:101D000000F090F958A000F0FDF94448C17844A0D3
:101D100000F088F956A000F0F5F94048017A40A09B
:101D200000F080F945A000F0EDF93C48417A3CA074
:101D300000F078F950A000F0E5F952484079C10769
:101D4000C90F37A000F06EF923A000F0DBF94E4870
:101D50000078401CC0B24C490870FA2829DB0020EA
:101D600008704AA000F0CEF94B48006800F094F9E2
:101D70004AA000F0C7F94B48006800F08DF94AA06E
:101D800000F0C0F94A48006800F086F949A000F068
:101D9000B9F94A48006800F07FF90FA000F0B2F9E5
:101DA000002046490860424908603E4908603A49B7
:101DB00008600220FFF7C4FE11E700008010004019
:101DC0000D0A4D4B35205553422D48494420486F4C
:101DD00073742073746172740D0A00002C0000206B
:101DE000200000206C000020240000206465762084
:101DF000696E2C20656E756D2E2E2E0A0000000077
:101E0000496E6974526F6F744465766963653D25E8
:101E1000780D0A005649443D00000000AC00002047
:101E200025780000205049443D00000025780D0A27
:101E3000000000006570303D00000000206570313A
:101E40003D0000006966303A20000000257820251A
:101E5000782025780D0A00006966313A20000000DC
:101E60000034004073743D0020747970653D0000BB
:101E7000206570303D000000206174746163683D2E
:101E800000000000008000401A000020483A207046
:101E90006F6C6C3D0000000000000020206F6B3D67
:101EA0000000000004000020206E616B3D00000077
:101EB00008000020206572723D0000000C00002028
:101EC00000BF0349C97A0829FBD00149087270474D
:101ED0000034004000B5014654292ED01DDC2629CF
:101EE0005BD009DC08461E380300FFF7C7FB084635
:101EF000484A4C4E505254642A2956D006DC2729B1
:101F00004DD028294DD0292955D14CE02B294ED030
:101F10002C294ED053294ED10DE0084655380300E8
:101F2000FFF7ACFB0F0D0F11131517191B1D1F2108
:101F300023252729490021A000BD22A0FCE722A0DB
:101F4000FAE722A0F8E722A0F6E722A0F4E723A010
:101F5000F2E723A0F0E723A0EEE723A0ECE723A01D
:101F6000EAE723A0E8E723A0E6E723A0E4E723A02D
:101F7000E2E723A0E0E723A0DEE718A0DCE718A053
:101F8000DAE718A0D8E718A0D6E718A0D4E718A079
:101F9000D2E718A0D0E718A0CEE718A0CCE718A089
:101FA000CAE70CA0C8E718A0C6E718A0C4E719A0A4
:101FB000C2E719A0C0E71AA0BEE700004E756D4C3D
:101FC0006F636B002F0000002A0000002D0000004E
:101FD0002B000000456E74657200000031000000A7
:101FE0003200000033000000340000003500000023
:101FF0003600000037000000380000003900000003
:10200000300000002E000000457363004261636BE6
:1020100000000000546162005370616365000000BD
:102020003F0000000FB438B505A800902BE00498DD
:102030000478401C0490252C03D02046FFF740FF75
:1020400021E004980478401C0490732C05D1009979
:1020500001C9009100F056F814E0642C01D0752CF1
:1020600005D1009901C9009100F016F80AE0782C1A
:1020700005D1009901C9009100F02AF802E020463C
:10208000FFF71EFF00BF049800780028CFD1009012
:1020900038BC08BC04B018473EB504460B250020E8
:1020A0006946C87200BF0A212046FEF70BF830319E
:1020B000681E05466A4611540A212046FEF702F8BA
:1020C0000446002CEFD16946481900F01BF83EBDCC
:1020D0003EB50446082500206946087200BF200767
:1020E000000F0749095C681E05466A461154240919
:1020F000002DF4DC6946481900F004F83EBD0000EC
:102100001A21000010B5044603E02078641CFFF794
:10211000D7FE20780028F8D110BD30313233343565
:1021200036373839414243444546000080060001B5
:1021300000001200800600020000040000050200FA
:10214000000000000009000000000000010B00007A
:10215000000000000201000000000000210A000051
:10216000000000008106002200004100A0060029B6
:102170000000090094210000000000202C00000055
:1021800098160000C02100002C0000201001000063
:10219000A816000000000000000000000000000081
:1021A000000000000000000000000000000000002F
:1021B000000000000000000000000000000000001F
:040000050000009166
:00000001FF
